{
  "contractName": "HealthCompute",
  "abi": [
    {
      "anonymous": false,
      "inputs": [
        {
          "indexed": true,
          "internalType": "bytes32",
          "name": "dataHash",
          "type": "bytes32"
        },
        {
          "indexed": false,
          "internalType": "bytes32",
          "name": "resultHash",
          "type": "bytes32"
        }
      ],
      "name": "ComputationLogged",
      "type": "event"
    },
    {
      "inputs": [
        {
          "internalType": "bytes32",
          "name": "",
          "type": "bytes32"
        }
      ],
      "name": "computations",
      "outputs": [
        {
          "internalType": "bytes32",
          "name": "dataHash",
          "type": "bytes32"
        },
        {
          "internalType": "bytes32",
          "name": "resultHash",
          "type": "bytes32"
        },
        {
          "internalType": "uint256",
          "name": "timestamp",
          "type": "uint256"
        }
      ],
      "stateMutability": "view",
      "type": "function",
      "constant": true
    },
    {
      "inputs": [
        {
          "internalType": "bytes32",
          "name": "_dataHash",
          "type": "bytes32"
        },
        {
          "internalType": "bytes32",
          "name": "_resultHash",
          "type": "bytes32"
        }
      ],
      "name": "logComputation",
      "outputs": [],
      "stateMutability": "nonpayable",
      "type": "function"
    },
    {
      "inputs": [
        {
          "internalType": "bytes32",
          "name": "_dataHash",
          "type": "bytes32"
        },
        {
          "internalType": "bytes32",
          "name": "_resultHash",
          "type": "bytes32"
        }
      ],
      "name": "verifyComputation",
      "outputs": [
        {
          "internalType": "bool",
          "name": "",
          "type": "bool"
        }
      ],
      "stateMutability": "view",
      "type": "function",
      "constant": true
    }
  ],
  "bytecode": "0x608060405234801561000f575f80fd5b506103098061001d5f395ff3fe608060405234801561000f575f80fd5b506004361061003f575f3560e01c80635397c1681461004357806381985cce14610073578063b6f9d1b1146100a5575b5f80fd5b61005d600480360381019061005891906101c2565b6100c1565b60405161006a919061021a565b60405180910390f35b61008d60048036038101906100889190610233565b6100e0565b60405161009c93929190610285565b60405180910390f35b6100bf60048036038101906100ba91906101c2565b610105565b005b5f815f808581526020019081526020015f206001015414905092915050565b5f602052805f5260405f205f91509050805f0154908060010154908060020154905083565b6040518060600160405280838152602001828152602001428152505f808481526020019081526020015f205f820151815f01556020820151816001015560408201518160020155905050817fe11edd0c8fba371f9030f1a2f5b158215151c8167d070eecf1bce496104ef2798260405161017f91906102ba565b60405180910390a25050565b5f80fd5b5f819050919050565b6101a18161018f565b81146101ab575f80fd5b50565b5f813590506101bc81610198565b92915050565b5f80604083850312156101d8576101d761018b565b5b5f6101e5858286016101ae565b92505060206101f6858286016101ae565b9150509250929050565b5f8115159050919050565b61021481610200565b82525050565b5f60208201905061022d5f83018461020b565b92915050565b5f602082840312156102485761024761018b565b5b5f610255848285016101ae565b91505092915050565b6102678161018f565b82525050565b5f819050919050565b61027f8161026d565b82525050565b5f6060820190506102985f83018661025e565b6102a5602083018561025e565b6102b26040830184610276565b949350505050565b5f6020820190506102cd5f83018461025e565b9291505056fea2646970667358221220b218e5e5f1e5ad477c7112d56c511fdfcf15b4f668e1ac07ced4f713abdb45e364736f6c63430008150033",
  "immutableReferences": {},
  "source": "// SPDX-License-Identifier: MIT\r\npragma solidity ^0.8.0;\r\n\r\ncontract HealthCompute {\r\n    struct Computation {\r\n        bytes32 dataHash;\r\n        bytes32 resultHash;\r\n        uint256 timestamp;\r\n    }\r\n\r\n    mapping(bytes32 => Computation) public computations;\r\n    event ComputationLogged(bytes32 indexed dataHash, bytes32 resultHash);\r\n\r\n    function logComputation(\r\n        bytes32 _dataHash,\r\n        bytes32 _resultHash\r\n    ) public {\r\n        computations[_dataHash] = Computation({\r\n            dataHash: _dataHash,\r\n            resultHash: _resultHash,\r\n            timestamp: block.timestamp\r\n        });\r\n        emit ComputationLogged(_dataHash, _resultHash);\r\n    }\r\n\r\n    function verifyComputation(\r\n        bytes32 _dataHash,\r\n        bytes32 _resultHash\r\n    ) public view returns (bool) {\r\n        return computations[_dataHash].resultHash == _resultHash;\r\n    }\r\n}",
  "sourcePath": "C:\\Users\\91941\\SVM\\blockchain\\contracts\\HealthCompute.sol",
  "compiler": {
    "name": "solc",
    "version": "0.8.21+commit.d9974bed.Emscripten.clang"
  },
  "schemaVersion": "3.4.16",
  "updatedAt": "2025-04-08T09:52:13.702Z",
  "networkType": "ethereum",
  "devdoc": {
    "kind": "dev",
    "methods": {},
    "version": 1
  },
  "userdoc": {
    "kind": "user",
    "methods": {},
    "version": 1
  }
}